{
  "contractName": "Election",
  "abi": [
    {
      "constant": true,
      "inputs": [],
      "name": "candidatesCount",
      "outputs": [
        {
          "name": "",
          "type": "uint256"
        }
      ],
      "payable": false,
      "stateMutability": "view",
      "type": "function"
    },
    {
      "constant": true,
      "inputs": [
        {
          "name": "",
          "type": "uint256"
        }
      ],
      "name": "candidates",
      "outputs": [
        {
          "name": "id",
          "type": "uint256"
        },
        {
          "name": "name",
          "type": "string"
        },
        {
          "name": "voteCount",
          "type": "uint256"
        }
      ],
      "payable": false,
      "stateMutability": "view",
      "type": "function"
    },
    {
      "constant": true,
      "inputs": [],
      "name": "abc",
      "outputs": [
        {
          "name": "",
          "type": "uint256"
        }
      ],
      "payable": false,
      "stateMutability": "view",
      "type": "function"
    },
    {
      "constant": true,
      "inputs": [
        {
          "name": "",
          "type": "address"
        }
      ],
      "name": "voted",
      "outputs": [
        {
          "name": "",
          "type": "bool"
        }
      ],
      "payable": false,
      "stateMutability": "view",
      "type": "function"
    },
    {
      "inputs": [],
      "payable": false,
      "stateMutability": "nonpayable",
      "type": "constructor"
    },
    {
      "anonymous": false,
      "inputs": [
        {
          "indexed": true,
          "name": "_candidateId",
          "type": "uint256"
        }
      ],
      "name": "votedEvent",
      "type": "event"
    },
    {
      "constant": false,
      "inputs": [
        {
          "name": "_candidateId",
          "type": "uint256"
        }
      ],
      "name": "vote",
      "outputs": [],
      "payable": false,
      "stateMutability": "nonpayable",
      "type": "function"
    },
    {
      "constant": false,
      "inputs": [
        {
          "name": "a",
          "type": "uint256"
        }
      ],
      "name": "pcp",
      "outputs": [],
      "payable": false,
      "stateMutability": "nonpayable",
      "type": "function"
    }
  ],
  "bytecode": "0x608060405234801561001057600080fd5b5061005e6040805190810160405280600b81526020017f43616e64696461746520310000000000000000000000000000000000000000008152506100fd640100000000026401000000009004565b6100ab6040805190810160405280600b81526020017f43616e64696461746520320000000000000000000000000000000000000000008152506100fd640100000000026401000000009004565b6100f86040805190810160405280600b81526020017f43616e64696461746520330000000000000000000000000000000000000000008152506100fd640100000000026401000000009004565b61021f565b6003600081548092919060010191905055506060604051908101604052806003548152602001828152602001600081525060016000600354815260200190815260200160002060008201518160000155602082015181600101908051906020019061016992919061017a565b506040820151816002015590505050565b828054600181600116156101000203166002900490600052602060002090601f016020900481019282601f106101bb57805160ff19168380011785556101e9565b828001600101855582156101e9579182015b828111156101e85782518255916020019190600101906101cd565b5b5090506101f691906101fa565b5090565b61021c91905b80821115610218576000816000905550600101610200565b5090565b90565b61048d8061022e6000396000f300608060405260043610610078576000357c0100000000000000000000000000000000000000000000000000000000900463ffffffff1680630121b93f1461007d57806309574772146100aa5780632d35a8a2146100d75780633477ee2e1461010257806392277933146101b6578063aec2ccae146101e1575b600080fd5b34801561008957600080fd5b506100a86004803603810190808035906020019092919050505061023c565b005b3480156100b657600080fd5b506100d560048036038101908080359060200190929190505050610366565b005b3480156100e357600080fd5b506100ec610373565b6040518082815260200191505060405180910390f35b34801561010e57600080fd5b5061012d60048036038101908080359060200190929190505050610379565b6040518084815260200180602001838152602001828103825284818151815260200191508051906020019080838360005b8381101561017957808201518184015260208101905061015e565b50505050905090810190601f1680156101a65780820380516001836020036101000a031916815260200191505b5094505050505060405180910390f35b3480156101c257600080fd5b506101cb61043b565b6040518082815260200191505060405180910390f35b3480156101ed57600080fd5b50610222600480360381019080803573ffffffffffffffffffffffffffffffffffffffff169060200190929190505050610441565b604051808215151515815260200191505060405180910390f35b60001515600260003373ffffffffffffffffffffffffffffffffffffffff1673ffffffffffffffffffffffffffffffffffffffff16815260200190815260200160002060009054906101000a900460ff16151514151561029b57600080fd5b6000811180156102ad57506003548111155b15156102b857600080fd5b6001600260003373ffffffffffffffffffffffffffffffffffffffff1673ffffffffffffffffffffffffffffffffffffffff16815260200190815260200160002060006101000a81548160ff0219169083151502179055506001600082815260200190815260200160002060020160008154809291906001019190505550807ffff3c900d938d21d0990d786e819f29b8d05c1ef587b462b939609625b684b1660405160405180910390a250565b6005810260008190555050565b60035481565b6001602052806000526040600020600091509050806000015490806001018054600181600116156101000203166002900480601f01602080910402602001604051908101604052809291908181526020018280546001816001161561010002031660029004801561042b5780601f106104005761010080835404028352916020019161042b565b820191906000526020600020905b81548152906001019060200180831161040e57829003601f168201915b5050505050908060020154905083565b60005481565b60026020528060005260406000206000915054906101000a900460ff16815600a165627a7a7230582082ae8ee2f5f40f7e31f609b0dfa9553f851c3c152f0c3c423642146f5f4856950029",
  "source": "pragma solidity ^0.4.23;\n\ncontract Election{\n    struct Candidate{\n        uint id;\n        string name;\n        uint voteCount;\n    }\n\n    event votedEvent(\n        uint indexed _candidateId\n    );\n\n    uint public abc;\n    mapping (uint=>Candidate) public candidates;\n    mapping (address=>bool) public voted;\n\n    uint public candidatesCount;\n    constructor() public {\n        addCandidate(\"Candidate 1\");\n        addCandidate(\"Candidate 2\");\n        addCandidate(\"Candidate 3\");\n\n    }\n\n    function addCandidate(string _name) private {\n        candidatesCount++;\n        candidates[candidatesCount] = Candidate(candidatesCount, _name, 0);\n    }\n\n    function vote(uint _candidateId)  public {\n        require(voted[msg.sender] == false);\n        require(_candidateId > 0 && _candidateId <= candidatesCount);\n        voted[msg.sender] = true;\n        candidates[_candidateId].voteCount++;\n        emit votedEvent(_candidateId);\n    }\n\n    function pcp(uint a) public {\n        abc = a*5;\n    }\n}",
  "sourcePath": "/Users/ogoombonu/code/blockchain/election/contracts/Election.sol",
  "compiler": {
    "name": "solc",
    "version": "0.4.24+commit.e67f0147.Emscripten.clang"
  },
  "schemaVersion": "2.0.0",
  "updatedAt": "2018-07-07T21:40:13.574Z"
}